S00B00006C63642E73726563E6
S11300000C9434000C9451000C9451000C94510045
S11300100C9451000C9451000C9451000C94510018
S11300200C9451000C949A010C9451000C945100BE
S11300300C9451000C9451000C9451000C945100F8
S11300400C9425020C9451000C9451000C94510012
S11300500C9451000C9451000C9451000C945100D8
S11300600C9451000C94510011241FBECFEFD8E022
S1130070DEBFCDBF11E0A0E0B1E0EAE0F5E002C0F0
S113008005900D92AE31B107D9F721E0AEE1B1E0B0
S113009001C01D92A132B207E1F70E944C010C94F9
S11300A083020C94000085B1826085B985E08A954D
S11300B0F1F7000085B18D7F85B90895CF93C82FDE
S11300C0662321F085B1816085B903C085B18E7F37
S11300D085B98AB180618AB98AB180628AB98AB1E4
S11300E080648AB98AB180688AB98BB18F778BB9F9
S11300F08BB18F7B8BB98BB18F7D8BB98BB18F7E9D
S11301008BB9CC231CF48BB180688BB9C6FF03C0B8
S11301108BB180648BB9C5FF03C08BB180628BB98E
S1130120C4FF03C08BB180618BB90E9453008BB1B3
S11301308F778BB98BB18F7B8BB98BB18F7D8BB95B
S11301408BB18F7E8BB9C3FF03C08BB180688BB931
S1130150C2FF03C08BB180648BB9C1FF03C08BB1F4
S113016080628BB9C0FF03C08BB180618BB90E94E0
S113017053008BB180618BB98BB180628BB98BB129
S113018080648BB98BB180688BB987EB9BE0019756
S1130190F1F700C00000CF91089560E00E945E0076
S11301A0089561E00E945E000895611104C08058C2
S11301B00E94CD00089580540E94CD00089581E0EE
S11301C00E94CD00089561E00E945E000895CF93DF
S11301D0DF93FC0103C00E94E300FE01EF012196BE
S11301E080818111F8CFDF91CF910895CF93C82FEB
S11301F084B1816084B98AB180628AB984B1826031
S113020084B98AB180618AB98AB180628AB98AB1B3
S113021080648AB98AB180688AB98FEF99EF0197AF
S1130220F1F700C000008BB180628BB98BB18061A3
S11302308BB90E9453008FE19EE40197F1F700C04F
S113024000000E9453008FEF90E00197F1F700C087
S113025000000E9453008FEF90E00197F1F700C077
S113026000008BB18F7E8BB90E9453008FEF90E01A
S11302700197F1F700C0000088E20E94CD0088E0F9
S11302800E94CD000E94DF0086E00E94CD008C2FEA
S11302900E94CD00CF9108958CE00E94F60060E0AA
S11302A081E00E94D50080E191E00E94E70060E0D7
S11302B08CE00E94D50088E191E00E94E70061E0B3
S11302C081E00E94D5008AE191E00E94E70061E0AC
S11302D08CE00E94D5008CE191E00E94E70080E46C
S11302E00E94CD00C0E008C0EC2FF0E0E050FF4FCA
S11302F080810E94D100CF5FC830B0F380E80E94B3
S1130300CD0080E00E94E30061E080E00E94D5001F
S113031081E00E94E300E1EBF0E080818A7F80834A
S1130320808182608083E0E7F0E080818160808367
S11303307894FFCF1F920F920FB60F9211242F9330
S11303403F934F935F936F937F938F939F93AF9359
S1130350BF93EF93FF93CF93DF93CDB7DEB7269789
S1130360DEBFCDBF80E290E29A83898380E290E091
S11303709C838B831E821D82809120018F5F8093DA
S11303802001863008F448C01092200180911F019A
S11303908F5F80931F018A30F0F010921F018091CB
S11303A01E018F5F80931E018C3310F010921E018A
S11303B080911E014AE0BE016D5F7F4F889FC0019E
S11303C011240E944E0260E08CE00E94D500CE0110
S11303D003960E94E70060E087E00E94D5008091C8
S11303E01F01805D0E94E30080911E014AE0BE016E
S11303F06F5F7F4F90E00E944E0260E084E00E94B5
S1130400D50080911E018A3018F480E30E94E30035
S1130410CE0101960E94E70026960FB6F894DEBF3F
S11304200FBECDBFDF91CF91FF91EF91BF91AF91FF
S11304309F918F917F916F915F914F913F912F91F8
S11304400F900FBE0F901F9018951F920F920FB62A
S11304500F9211242F933F934F935F936F937F9346
S11304608F939F93AF93BF93EF93FF9361E081E0EA
S11304700E94D50080E00E94E300FF91EF91BF91BC
S1130480AF919F918F917F916F915F914F913F9128
S11304902F910F900FBE0F901F901895BB274A30D5
S11304A031F4992322F4BDE2909581959F4F0C94E9
S11304B05A02BB27FB015527AA27880F991FAA1F99
S11304C0A41710F0A41B83955051B9F7A05DAA336B
S11304D008F0A95DA193009779F7B111B193119236
S11304E0CB010C947302DC01FC01672F719177231B
S11304F0E1F7329704C07C916D9370836291AE17DB
S10D0500BF07C8F30895F894FFCF75
S113050A070E1C181C0E0703001B1B0004111F0EE8
S111051A30303A30302E300061006200630051
S9030000FC
