S00C00004C6564732E7372656390
S11300000C9434000C943E000C943E000C943E007E
S11300100C943E000C943E000C943E000C943E0064
S11300200C943E000C943E000C943E000C943E0054
S11300300C943E000C943E000C943E000C943E0044
S11300400C943E000C943E000C943E000C943E0034
S11300500C943E000C943E000C943E000C943E0024
S11300600C943E000C943E0011241FBECFEFD8E048
S1130070DEBFCDBF0E9440000C946C000C940000C5
S113008084B1806284B985B18F7D85B987B181607F
S113009087B988B188B98AB18E7F8AB98BB18160FA
S11300A08BB995B180E2892785B92FEF89E698E16C
S11300B0215080409040E1F700C0000098B181E0F9
S11300C0892788B92FEF89E698E121508040904034
S10F00D0E1F700C00000E5CFF894FFCF7A
S9030000FC
